:020000020000FC
:040000000C948000DC
:0400E00003312E3288
:0400F00003352E3076
:1000FE005300F8941FEF1DBF10E41EBF10E017B998
:10010E00549A559A569857985D9A5C9A000000003A
:10011E004E9908C05D98000000005D9A0000000036
:10012E004E9BF8CF1FEF11B910E012B9529A539AA5
:10013E005A985B98519A599809D017D14E99FDCF7C
:10014E005D980000000026B15D9AF6CF21542A3149
:10015E0030F4E7EBF0E0E20F20E0F21F09941BC051
:10016E001AC019C082C017C06BC015C014C013C00E
:10017E0012C011C010C00FC00EC00DC005C10BC003
:10018E000AC0B7C087C007C006C027C004C003C0DE
:10019E0002C00CC000C04F99FECF1FEF17B91EE46E
:1001AE005C9A18B95C9810E017B908954F99FECF74
:1001BE001FEF17B911E45C9A18B95C9810E017B9E3
:1001CE00A8951091600018611093600018E01093CC
:1001DE00600018E010936000FFCF2EE34F99FECF22
:1001EE001FEF17B95C9A28B95C9810E017B923E095
:1001FE004F99FECF1FEF17B95C9A28B95C9810E0A3
:10020E0017B921E04F99FECF1FEF17B95C9A28B9A5
:10021E005C9810E017B921E04F99FECF1FEF17B988
:10022E005C9A28B95C9810E017B94F99FECF1FEF72
:10023E0017B911E45C9A18B95C9810E017B90895D3
:10024E0085D04E99FDCF5D980000000006B05D9AF6
:10025E004F99FECF1FEF17B911E45C9A18B95C984D
:10026E0010E017B90092270108955A9A4F99FECFC0
:10027E001FEF17B911E45C9A18B95C9810E017B922
:10028E00B1E0A0E09FE380EC10E01D930197E9F749
:10029E005A9808955A9A5AD04E99FDCF5D980000FB
:1002AE00000096B15D9A0000000050D04E99FDCF2F
:1002BE005D980000000086B15D9A5A9A5B98B1E095
:1002CE00A0E00D904F99FECF1FEF17B95C9A08B8BA
:1002DE005C9810E017B90197A1F74F99FECF1FEF69
:1002EE0017B911E45C9A18B95C9810E017B95A98CE
:1002FE0008955A9A2BD04E99FDCF5D9800000000BC
:10030E0096B15D9A0000000021D04E99FDCF5D9808
:10031E000000000086B15D9A5A9A5B98B1E0A0E0A9
:10032E004E99FECF5D980000000006B05D9A0D92CA
:10033E000197B1F74F99FECF1FEF17B911E45C9AF1
:10034E0018B95C9810E017B95A980895339538305B
:10035E0058F030E0039541F44395403818F45A9A1A
:10036E005B9802C05A985B9A08953395303359F4CE
:10037E0030E0039541F44395403118F45A9A5B9A54
:10038E0002C05A985B980895E1DF4E99FDCF5D98B3
:10039E000000000096B15D9A00000000D7DF4E9974
:1003AE00FDCF5D980000000086B15D9A5A985B9A69
:1003BE00B1E0A0E00D9000000000000C78F4000009
:1003CE00599A00000000000000000000000000002C
:1003DE00000000000000000059980FC0599A00005C
:1003EE00000000005998000000000000000000000E
:1003FE0000000000000000000000000000000000EF
:10040E000000000C78F40000599A00000000000073
:10041E0000000000000000000000000000000000CE
:10042E0059980FC0599A000000000000599800001A
:10043E0000000000000000000000000000000000AE
:10044E0000000000000000000000000C78F4000026
:10045E00599A00000000000000000000000000009B
:10046E00000000000000000059980FC0599A0000CB
:10047E00000000005998000000000000000000007D
:10048E00000000000000000000000000000000005E
:10049E000000000C78F40000599A000000000000E3
:1004AE00000000000000000000000000000000003E
:1004BE0059980FC0599A000000000000599800008A
:1004CE00000000000000000000000000000000001E
:1004DE0000000000000000000000000C78F4000096
:1004EE00599A00000000000000000000000000000B
:1004FE00000000000000000059980FC0599A00003B
:10050E0000000000599800000000000000000000EC
:10051E0000000000000000000000000000000000CD
:10052E000000000C78F40000599A00000000000052
:10053E0000000000000000000000000000000000AD
:10054E0059980FC0599A00000000000059980000F9
:10055E00000000000000000000000000000000008D
:10056E0000000000000000000000000C78F4000005
:10057E00599A00000000000000000000000000007A
:10058E00000000000000000059980FC0599A0000AA
:10059E00000000005998000000000000000000005C
:1005AE00000000000000000000000000000000003D
:1005BE000000000CC0F40000599A019751F00000A1
:1005CE00000000000000000000000000000059982C
:1005DE00F1CE00000000000000000000000000004E
:1005EE00000059980DC0599A00000000000059985B
:1005FE0000000000000000000000019709F0DACEB4
:10060E004F99FECF1FEF17B911E45C9A18B95C9899
:10061E0010E017B911E40000000000000000000017
:10062E0000000000000000000000000000000000BC
:10063E0000000000000000000000000000000000AC
:10064E001A9549F75A985B980895456E64206F661F
:0A065E00206669726D776172650015
:00000001FF
