:020000020000FC
:100000000C948000000000000000000000000000D0
:1000100000000000000000000000000000000000E0
:1000200000000000000000000000000000000000D0
:1000300000000000000000000000000000000000C0
:1000400000000000000000000000000000000000B0
:1000500000000000000000000000000000000000A0
:100060000000000000000000000000000000000090
:100070000000000000000000000000000000000080
:100080000000000000000000000000000000000070
:100090000000000000000000000000000000000060
:1000A0000000000000000000000000000000000050
:1000B0000000000000000000000000000000000040
:1000C0000000000000000000000000000000000030
:1000D0000000000000000000000000000000000020
:1000E00003312E320000000000000000000000007C
:1000F00003352E3000000000000000000000530017
:10010000F8941FEF1DBF10E41EBF10E017B9549AFA
:10011000559A569857985D9A5C9A000000004E993F
:1001200008C05D98000000005D9A000000004E9B32
:10013000F8CF1FEF11B910E012B9529A539A5A989A
:100140005B98519A59980AD08BD14E99FDCF5D9802
:1001500000000000000026B15D9AF5CF21542A313D
:1001600030F4E8EBF0E0E20F20E0F21F09941BC04E
:100170001AC019C0CBC017C0ACC015C014C013C082
:1001800012C011C010C00FC00EC00DC078C10BC08E
:100190000AC01BC1D7C007C006C035C004C003C019
:1001A00002C013C000C04F99FECF1FEF17B91EE465
:1001B0005C9A0000000018B90000000000005C9884
:1001C0000000000010E017B908954F99FECF1FEF0F
:1001D00017B911E45C9A0000000018B90000000093
:1001E00000005C980000000010E017B9A89510917D
:1001F000600018611093600018E01093600018E030
:1002000010936000FFCF2EE34F99FECF1FEF17B979
:10021000000000005C9A0000000028B90000000007
:1002200000005C980000000010E017B9000000001A
:1002300023E04F99FECF1FEF17B9000000005C9A32
:100240000000000028B90000000000005C980000D9
:10025000000010E017B90000000021E04F99FECF28
:100260001FEF17B9000000005C9A0000000028B9D9
:100270000000000000005C980000000010E017B9CA
:100280000000000021E04F99FECF1FEF17B90000DA
:1002900000005C9A0000000028B900000000000087
:1002A0005C980000000010E017B9000000004F99B2
:1002B000FECF1FEF17B911E45C9A0000000018B9D7
:1002C0000000000000005C980000000010E017B97A
:1002D0000895B7D04E99FDCF5D9800000000000052
:1002E00006B05D9A4F99FECF1FEF17B911E45C9AE3
:1002F0000000000018B90000000000005C98000039
:10030000000010E017B90092690108955A9A4F99B8
:10031000FECF1FEF17B911E45C9A0000000018B976
:100320000000000000005C980000000010E017B919
:10033000B1E0A0E09FE380EC10E01D930197E9F7A6
:100340005A9808955A9A7DD04E99FDCF5D98000035
:100350000000000096B15D9A0000000072D04E9936
:10036000FDCF5D9800000000000086B15D9A5A9AAA
:100370005B98B1E0A0E00D904F99FECF1FEF17B949
:10038000000000005C9A0000000008B800000000B7
:1003900000005C980000000010E017B900000000A9
:1003A000019749F74F99FECF1FEF17B911E45C9AF7
:1003B0000000000018B90000000000005C98000078
:1003C000000010E017B95A9808955A9A3AD04E99F9
:1003D000FDCF5D9800000000000096B15D9A00001E
:1003E00000002FD04E99FDCF5D9800000000000066
:1003F00086B15D9A5A9A5B98B1E0A0E04E99FECF23
:100400000000000000005D9800000000000006B041
:100410005D9A0D9200000000019781F74F99FECF81
:100420001FEF17B911E45C9A0000000018B9000032
:10043000000000005C980000000010E017B95A9816
:1004400008953395383058F030E0039541F44395E2
:10045000403818F45A9A5B9802C05A985B9A0895EB
:100460003395303359F430E0039541F443954031EE
:1004700018F45A9A5B9A02C05A985B980895E1DF83
:100480004E99FDCF5D9800000000000096B15D9A86
:1004900000000000D6DF4E99FDCF5D9800000000FF
:1004A000000086B15D9A5A985B9AB1E0A0E00D9089
:1004B00000000000000C78F40000599A00000000D1
:1004C000000000000000000000000000000000002C
:1004D000000059980FC0599A000000000000599878
:1004E000000000000000000000000000000000000C
:1004F000000000000000000000000000000C78F484
:100500000000599A000000000000000000000000F8
:100510000000000000000000000059980FC0599A28
:1005200000000000000059980000000000000000DA
:1005300000000000000000000000000000000000BB
:1005400000000000000C78F40000599A0000000040
:10055000000000000000000000000000000000009B
:10056000000059980FC0599A0000000000005998E7
:10057000000000000000000000000000000000007B
:10058000000000000000000000000000000C78F4F3
:100590000000599A00000000000000000000000068
:1005A0000000000000000000000059980FC0599A98
:1005B000000000000000599800000000000000004A
:1005C000000000000000000000000000000000002B
:1005D00000000000000C78F40000599A00000000B0
:1005E000000000000000000000000000000000000B
:1005F000000059980FC0599A000000000000599857
:1006000000000000000000000000000000000000EA
:10061000000000000000000000000000000C78F462
:100620000000599A000000000000000000000000D7
:100630000000000000000000000059980FC0599A07
:1006400000000000000059980000000000000000B9
:10065000000000000000000000000000000000009A
:1006600000000000000C78F40000599A000000001F
:10067000000000000000000000000000000000007A
:10068000000059980FC0599A0000000000005998C6
:10069000000000000000000000000000000000005A
:1006A000000000000000000000000000000CC0F48A
:1006B0000000599A019751F000000000000000006E
:1006C00000000000000000005998F1CE000000007A
:1006D00000000000000000000000000059980DC05C
:1006E000599A000000000000599800000000000026
:1006F00000000000019709F0DACE4F99FECF1FEFFE
:1007000017B911E45C9A0000000018B9000000005D
:1007100000005C980000000010E017B911E4000030
:1007200000000000000000000000000000000000C9
:1007300000000000000000000000000000000000B9
:1007400000000000000000001A9549F75A985B98D5
:100750000895456E64206F66206669726D776172D8
:02076000650032
:00000001FF
